:02000002D0002C
:1040000000400D00C0A90D00000006000C000501D5
:084010000401BD0B00000000DB
:0440180028940D00DB
:1040200009480A49884208B505D0094A824202D0A7
:10403000121A05F00DF90748074A0021121A05F077
:1040400015F9014808BD00BFFCE403202CA90D00B0
:1040500068E5032068E50320F0E7032070B5074E0C
:10406000074C03F09BFAA41BA4080025A54200D12D
:1040700070BD56F8043B98470135F7E7F8A80D00E6
:104080001CA90D0000F07EBC08B500F019FEBDE8CB
:10409000084003F045BA02F03FBE02F03DBE02F018
:1040A00043BE000008B5034A00210C2002F088FD41
:1040B000FEE700BFA1680D000078B0FA80F040096B
:1040C000704701230370704737B5044608460191D5
:1040D00005F00AF96368A268451CE818904208D800
:1040E000206801992A46184405F0B2F8606828440F
:1040F000606003B030BD000038B584690A4B0360CE
:1041000005467CB16368013B63605BB92368204668
:104110009B689847A368013BA3601BB923682046AE
:10412000DB689847284638BD44A60D0008B502F064
:10413000BFFB034B1860BDE8084002F0DDBD00BFC7
:10414000D4E7032003682BB14268934202D2184699
:1041500005F068B80020704738B50568044645B1D9
:1041600043689D4205D2284605F0BEF8013005445B
:104170002560204638BD10B403460A4639B9D0E957
:1041800000014C1C5C6042545DF8044B70475DF8C4
:10419000044BFFF799BF000038B504460B46D0E941
:1041A00001012568044A091A284402F0CDFD63681C
:1041B00001300344636038BD3C940D0038B50446BB
:1041C0000B46D0E901012568044A091A284402F087
:1041D000BBFD636801300344636038BD3F940D004C
:1041E00008B5086805F01EF8014B186008BD00BF4F
:1041F00038E6032010B501210446062004F03DF8FE
:10420000204603F053F90620002104F036F820463A
:10421000BDE8104003F04AB938B505464AB902680E
:10422000C9B2926890470446284603F09CF820449F
:1042300038BDD2B203F0ADF8F5E708B500234377F7
:10424000006803F001FEBDE8084002F0B3BA0000C8
:104250002DE9F0438F188FB0B942CDE90517064616
:104260008946904680F0C28005A80D88FFF774FF4C
:1042700003689F4240F2BA8005980378412B49D1E8
:10428000013004F0CFFF052837DDFF2447F2762305
:104290009D4200F0D38041D847F261239D4200F057
:1042A000A88047F264239D426BD046F670539D422E
:1042B00041D1784D784EDFF8F4810598874240F27D
:1042C00095800378412B4BD1013004F0ABFF0528DA
:1042D00039DDFF2405A8FFF73FFFDDF814902946DC
:1042E000484604F0EFFF014600283DD1204603F088
:1042F000B3FF05A8FFF730FFDFE70598013004F0B2
:1043000091FF0028C1DB0598013004F08BFF0E30CF
:10431000C4B2BBE705A8FFF715FFF9E747F26473DE
:104320009D424FD047F276739D4200F0978047F24E
:1043300061739D426FD00023CDE9013302220092C8
:10434000728B19463AE00598013004F06BFF0028A3
:10435000BFDB0598013004F065FF0E30C4B2B9E749
:1043600005A8FFF7EFFEF9E73146484604F0AAFF3B
:1043700028B14146484604F0A5FF0028B9D10121E3
:10438000B4E70AAB4549079307A810230025CDE9F8
:104390000853FFF799FE07A82146FFF7FDFE2046C8
:1043A00003F084FF014607A8FFF708FF089BCDE94B
:1043B0000155013B0093079B2A461421304600F02B
:1043C0002DFB13E005A8FFF7C7FE03689F420DD938
:1043D000A4B20121204603F03FFF05A8FFF7B2FE7B
:1043E000011E18BF0121204603F047FF0FB0BDE8B2
:1043F000F0830AAB079307A8102329490025CDE9CC
:104400000853FFF761FE07A82146FFF7C5FE2046C7
:1044100003F05FFFC6E705A8FFF79EFE03689F4213
:10442000E4D9A4B20121204603F016FF05A8FFF746
:1044300089FE0146204603F063FFD7E720468DF84A
:10444000284002F0B9F903460AA823B1154A93425D
:1044500001D09847CAE702F0ABF9C7E705A8FFF714
:104460007BFE059B8DF81C40A3EB0901A8EB010125
:104470002046CDE90A310C9102F0A8F903460AA9B9
:1044800007A823B1084A934201D09847AEE702F04B
:1044900090F9ABE743940D0046940D004E940D0047
:1044A00051940D00B1670D00B3670D004A940D00E3
:1044B0002DE9F0418CB004AF044605220068391D97
:1044C00002F0CBFFB8B3052804D000202037BD464A
:1044D000BDE8F081B7F80520130A43EA0223B7F8D4
:1044E0000720A7F8053099B2130A43EA02231FFAFE
:1044F00083F8A7F807300029E7D03B7923BB02F007
:1045000055F90246E060607FB7F80730C0B9B7F8E8
:104510000510012914D1092B0FD0C82B01D0042B71
:10452000D4D1012562612046657700F025FBFFF7B5
:10453000FDFD02F03FF90120C8E703236377C5E7DB
:10454000581F18BF0120C1E7B8F5806F03D9204676
:10455000FFF773FEEFE708F1080323F007036E4649
:10456000ADEB030D04AD20684246294602F075FF0D
:1045700080454FF000007FD1B7F80730E85402F0D3
:1045800015F93B79E060142B00F0A68048D80F2B7A
:1045900000F0A28007D8022B48D0062B51D020462D
:1045A000FFF74BFE58E0112BF9D100233B70B7F811
:1045B00007302B449D42C7E903534DD207F10C004D
:1045C000D5F80080FFF7C8FDFB68B7F807105D1B42
:1045D0004D1BC7E905357B68FD61C3F30F2363837A
:1045E000644B984500F0BF8000F28C80A3F57F23D8
:1045F0006FF400721344984500F09D8079D8A3F5BC
:104600000033063B984500F09C8003F500330333EC
:1046100098456BD107F11401384602F0CAF865E0FD
:10462000292B1BD0372B17D01D2BB8D1637F43B953
:1046300001236377204600F09FFAFFF777FD02F031
:10464000B9F80023C821B7F805200091CDE901335E
:104650001946204600F0E2F901200DE0A3681BB9DD
:10466000402002F059FBA060B7F80780A8444545F8
:10467000C7E9055802D30020B54627E7294640225E
:10468000A06804F039FEA368002583F83F5007F1C5
:104690001400FFF761FD036843451BD2786920B120
:1046A000BB69984214D204F0C1FD85B2206803F0C2
:1046B000CBFB2368A2685A631D870023637702F04F
:1046C00075F8A0F59C500838C4E903006061C3E7A1
:1046D0002846EAE75025E9E77B68B7F80720C3F3E7
:1046E0000F23638329462046FFF7B2FD002363832F
:1046F000B2E7214B9845F9D107F11401384602F091
:1047000058F8F3E71D4B984521D003F19F6303F55B
:10471000003303F5807398451FD003F16E4303F512
:10472000302303F586739845E0D107F1140138462C
:1047300002F03FF8DAE707F11401384602F039F8E1
:10474000D4E707F11401384602F033F8CEE707F159
:104750001401384602F02DF8C8E707F11401384675
:1047600002F027F8C2E707F11401384602F021F8F9
:10477000BCE700BF766673006462670061636F6EBA
:104780002DE9F04104468CB00D46FFF7CFFC637F66
:10479000022B00F0A880237F628B0133DBB22377EA
:1047A0000AB1012516E0022BFBD8206803F06BF953
:1047B000B8B125B9206803F0EDFA002811DD2046D4
:1047C000FFF776FE05460028F4D1206803F03CFB95
:1047D00001F0F0FF237F013B237728460CB0BDE8B2
:1047E000F08101F0E3FF0646206803F04CF9677F93
:1047F000012F054629D120B966612046FFF71DFD2E
:10480000E8E7E3684FF21862F31A934204D92046AE
:10481000FFF713FD0025DDE74AF6C872934203D87F
:104820002369F31A9342BCD9636941F27072F31A97
:104830009342B6D90023CDE9013300931A460621ED
:10484000204600F0EBF86661ABE7002FA9D1626962
:10485000B21A40B141F270739A42A2D9206803F0B3
:10486000F3FA6777D6E741F288339A4299D92068FC
:1048700003F0EAFAD4F800C0DCF834E0BCF8388081
:10488000BEF1000F0BD02B4642467146604603F046
:1048900039FB431E5D425D418DB966619AE7134B5A
:1048A00006930CF120070FCF07AD0FC53B682B70A7
:1048B0004246734606A9604603F0F1F9E9E76368EA
:1048C000059301261846268304F00EFD0022CDE94B
:1048D0000122059B009032461D21204600F09EF8E3
:1048E0002369636176E7002577E700BF74A50D00B3
:1048F0002DE9F04115468CB00446043540F6B83039
:104900000F46984601F050FF0FCD01AE0FC62B6841
:104910003370676001F04AFFA0F59C50083801AF82
:10492000C4E9030060610FCF07AE0FC63B68337068
:1049300007AF0FCF25684FF0000CC5F834C0A5F8BD
:10494000388020350FC533682B70664644F24F67B8
:10495000206803F079FA667701F028FF0546637F47
:10496000012B0CD001F022FF401BB84204D80021DB
:104970002046FFF705FFF2E7637F012BE8D10CB07B
:10498000BDE8F08110B588B003F0F8FC03F018F82A
:104990001E481F4C01F07EF81C4801F0FFFB1B482D
:1049A00001F068FE0121052003F056FC01210620DC
:1049B00003F052FC0121072003F04EFC00210820E7
:1049C00003F04AFC03F0DAFC0146204601F042FA0B
:1049D000204601F0F6F9204601F0C5F902F006FF85
:1049E0004FF4165102F0F6FEA2230093AC22EA2304
:1049F000A72102A802F082FE0649074842F282334C
:104A000002AAFFF775FF08B010BD00BFC8E503207C
:104A10003CE6032054940D006CE503202DE9F04F93
:104A200083B000AF044600683D6B88461646994641
:104A3000EB4603F028F800287FD0B8F11D0F04D80A
:104A40004C4B23FA08F3DB0702D4637F012B74D1AC
:104A500046B9668B36B9238B01339BB2002B71D0DC
:104A60002383268BA8F10C03082B16D8D4E9032343
:104A7000934238BF134603F1420A01F097FEAAEBB6
:104A80000000002860DB00212046FFF779FE01F0DE
:104A90008DFEAAEB00000028F5DAB9F1000F5AD01C
:104AA0006B1D7A6B002ABA6B08BF002203EB020A67
:104AB0000AF1070323F00703ADEB030DBB6BC7F847
:104AC00004D0EA18C2F3072376BA43EA02238DF82A
:104AD0000080ADF80160ADF80330B9F1000F3CD0B3
:104AE000002D3AD02A4649460DF1050004F0B0FBEE
:104AF000681D7B6B3BB1BB6B2BB11A467B68796B36
:104B0000184404F0A5FB002555452AD2AAEB05025E
:104B10007B682068B2F5806F28BF4FF48062591916
:104B200002F09BFF0646002001F03EFEBEB9206861
:104B300003F08AF9667701F03DFE0C37DD46BD468D
:104B4000BDE8F08F01238BE7217F0029A5D1204606
:104B5000FFF716FEA1E70523A3E70520C9E73544C3
:104B6000D2E703D02046FFF768FBE6E701F01EFE20
:104B70002061E2E74500002000B595B004AB0022BB
:104B80000193492300930292034B1121FFF746FF43
:104B900015B05DF804FB00BF7F950D0030B5ADF298
:104BA000244D08AB00240546059305A84FF4806307
:104BB000CDE90643FFF7DFFA069B013B0093CDE901
:104BC0000144059B22460E212846FFF727FF0DF2E0
:104BD000244D30BD30B5ADF2244D08AB0024054660
:104BE000059305A84FF48063CDE90643FFF7C3FAA8
:104BF000069B013B0093CDE90144059B22460E2113
:104C00002846FFF70BFF0DF2244D30BD30B5ADF255
:104C1000244D08AB00240546059305A84FF4806396
:104C2000CDE90643FFF7A7FA069B013B0093CDE9C8
:104C30000144059B22460E212846FFF7EFFE0DF2A8
:104C4000244D30BD70B52DED028BB0EE408AF0EEF4
:104C5000608AADF5846D08AB002405460E460593C9
:104C600005A84FF480631349CDE90643FFF72CFAFA
:104C7000314605A8FFF790FADDE9063105980E4A9E
:104C8000C91A8DED008B184402F05EF8431C06989B
:104C900003440693013B0093CDE90144059B224662
:104CA00014212846FFF7BAFE0DF5846DBDEC028B8A
:104CB00070BD00BF75940D0078940D0000000000D9
:104CC0002DE9F0432DED048B8A4C8B4F91B020469B
:104CD00000F009FF00218948FFF752FD884800F0E5
:104CE000C6FF064602F082FD0A223146054602F062
:104CF00050FB284602F037FB204600F00DFF40B382
:104D0000204601F04BFA0121204600F074FE0022FB
:104D10004FF001137B492046C4E9042302F01CFB39
:104D2000794B0A2219882046FFF776FA7749204600
:104D300002F012FB764B0A2219882046FFF76CFA24
:104D40007449204602F01BFB204601F093FC01232E
:104D50003B70082003F0AAFA01283B786ED1002BA3
:104D60006ED04FF47A7002F0A1FBDFF88881DFF893
:104D7000B091082003F09AFA054640BB404601F086
:104D80000DFA0121404600F036FE4FF0011349466E
:104D900040462561636102F0F2FA0F2003F099FAB0
:104DA000051E12DA2D21404602F0DAFA69420A2283
:104DB000404602F0EEFA404602F0D5FA404601F0D5
:104DC00059FCC82002F072FBD3E72946EFE70F2019
:104DD00003F07FFA4C4B188000233B704E4B0122AE
:104DE0001A704FF47A7002F061FBDFF80881DFF887
:104DF0003491082003F05AFA054640BB404601F0C2
:104E0000CDF949464046256102F0B9FA0F2003F07A
:104E100060FA051E19DA2D21404602F0A1FA694216
:104E20000A22404602F0B5FA404602F09CFA40469B
:104E300001F020FCC82002F039FBDAE7002B36D164
:104E4000354B1B78002B32D0CBE72946E8E70F2003
:104E500003F03FFADFF8B880A8F80000254801F019
:104E60009DF9002527492348256102F088FA264B41
:104E7000204819880A22FFF7CFF924491D4802F07B
:104E80007EFAB8F800101B480A22FFF7C5F9194846
:104E900001F0F0FB41F2883002F008FB154801F008
:104EA0007DF9144801F0E6FB1B4B3D701D70164B5D
:104EB000DFF85C801A88B242994635D8B8F80030DD
:104EC000B3424ED3052003F0F1F90546002844D142
:104ED00012490A48FFF77EFE2946062003F0CDF965
:104EE0000121052003F0C9F92946072003F0C5F97F
:104EF00033E000BFC8E5032041E603206CE5032052
:104F00003CE603207E940D00FEE403208A940D000D
:104F1000FCE4032097940D0040E6032007950D0064
:104F2000B3940D00CC940D00072003F0BFF90546A3
:104F300078B97B497B48FFF731FE2946052003F00D
:104F40009CF92946062003F098F90121072003F077
:104F500094F9B9F80030B342B0D9B8F80030B34290
:104F600014D2062003F0A2F9054678B96E496D48BF
:104F7000FFF74CFE2946072003F07FF901210620A8
:104F800003F07BF92946052003F077F90E2003F0A2
:104F9000A0F9C11703F0BCFC5BA3D3E9002303F025
:104FA000EDFC5BA3D3E9002303F012FE5F4B00226C
:104FB00003F02CFB5E4B002203F0E0FC02460B46A4
:104FC00043EC192B54A3D3E9002303F0D7FC594B2E
:104FD000002203F01DFBB0EE490AF0EE690A41EC35
:104FE000180B0621684602F01EF9B0EE480AF0EEF2
:104FF000680A062104A802F016F94F490CA802F02D
:10500000D2F869460CA802F039F94C4902F042F98D
:1050100004A902F033F9014608A802F0E7F80CA849
:1050200002F076F8B0EE490AF0EE690A3D48002138
:10503000FFF708FEB0EE480AF0EE680A3948012191
:10504000FFF700FE3E4800F071FD98B13C4801F0CA
:10505000A5F83B48012100F0CEFC00254FF00113DC
:1050600008993748C4E9045302F089F9344801F03B
:1050700001FB3D70334B1B68012B35D14FF496700B
:1050800002F014FA0021072003F0F7F800210520B0
:1050900003F0F3F80021062003F0EFF8C820FFF733
:1050A000A9F8C820FFF7A6F8C820FFF7A3F84FF427
:1050B000967002F0FBF94FF4FA70FFF79BF84FF48B
:1050C000FA70FFF797F84FF4FA70FFF793F8C820DB
:1050D000FFF790F8C820FFF78DF8C820FFF78AF88F
:1050E0004FF47A7002F0E2F908A802F011F804A86F
:1050F00002F00EF8684602F00BF811B0BDEC048B1C
:10510000BDE8F083AFF300806666666666660A40B7
:105110000000000000FEAF40CDCCCCCCCCCCFC3F9E
:10512000E6940D006CE503202E950D000000E03F95
:1051300000005940000040404B950D0069950D005E
:10514000C8E5032038E6032038B5164D284602F09E
:10515000C5FE05F11C00002402F08CFA124A134926
:105160006C6328462C8703F031F9114B2146C3E9C3
:105170000054C3E90244C3E904449C619C830D4C80
:10518000012001F03DFD0721204600F055FC20469E
:10519000054A094903F01AF9BDE83840074800F00C
:1051A0002CBD00BF8CE5032068E50320F9400D000D
:1051B0006CE50320C8E50320055A0D003CE60320FA
:1051C000704710B51021044603F005F9204610BDC4
:1051D0000EB403B503AB002153F8042B019302F086
:1051E000F6F802B05DF804EB03B0704773B50446FF
:1051F00008462279A36832B1A3B90B4902B0BDE8D1
:10520000704002F0A9B8094A267B094D0949647B20
:10521000012E18BF2946CDE900140749FFF7D8FF32
:1052200002B070BD054AEFE7DB950D0068950D00F3
:10523000D7950D00D3950D00F1950D00CA950D0081
:105240002DE9F04F85B01F46BDF93880BDF83C30E0
:10525000A8EB0209A7EB010AB9F1000FB8BFC9F129
:105260000009BAF1000FB8BFCAF1000AD145834660
:105270000C46154604DD3A462C4647460D469046F8
:10528000BC4205DD2A464546904622463C46174626
:105290003E1BB2B20092A8EB0502002AB8BF5242F0
:1052A0000192C6F3C03202FA86F64545B4BF012228
:1052B0004FF0FF3276100292BC421CDCDBF800207B
:1052C0000393D145D2F81880C7BF294622462A4603
:1052D00021465846C047019A039BB61AB1B236B26E
:1052E000002E05DA029A1544009A56182DB236B2ED
:1052F000013424B2E0E705B0BDE8F08F704710B488
:1053000004682469A4465DF8044B604730B404681F
:10531000BDF808500295A46BA44630BC604730B479
:105320000468BDF808500295E46BA44630BC6047A1
:1053300070B4BDF90C50BDF810600468CDE9035697
:10534000246CA44670BC60472DE9F3411C460368F9
:10535000BDF820805B6905461646013C34440F4683
:1053600024B298472B68CDF8048000949C6A2846A4
:105370003B4632463946A0472B68DB6A284602B0D6
:10538000BDE8F04118472DE9F3411D460368BDF81B
:1053900020805B69044617460E469847CDE90078A1
:1053A00022686B1E3344956A20461BB23A4631464A
:1053B000A8472368DB6A204602B0BDE8F0411847E1
:1053C0002DE9F3471E460368BDF928905B69BDF8D7
:1053D0002C800C460546174698472644B4422B6855
:1053E0000BDACDF80080D3F820A021464B463A4690
:1053F00028460134D04724B2F0E7DB6A284602B0E1
:10540000BDE8F047184713B502680191B0F90E10D6
:105410000091146CB0F90C3000221146A04702B084
:1054200010BD2DE9F3471D460368BDF82C805B696C
:10543000BDF9289004460F46164698472368CDF8D4
:105440000080D3F824A032462B4639462046D04768
:105450002368CDF8008009F1FF323244D3F824A04C
:1054600039462B46204612B2D0472368CDF800803B
:10547000D3F820A032464B4639462046D0476B1E13
:10548000D9192368CDF800801D6A20464B46324664
:1054900009B2A8472368DB6A204602B0BDE8F0479E
:1054A000184770472DE9F74399421646BDF9287011
:1054B000BDF82C90026880460D461C4613D1BE42B2
:1054C000C8BF3346CDF82890C4BF3E461F467B1C5C
:1054D000946B9B1B1BB2324629464046A44603B040
:1054E000BDE8F0436047BE420AD19942C2BF0B46B5
:1054F00025461C46631CCDF82890D46B5B1BE9E75E
:1055000053699847CDE90079D8F8003040469F6A42
:10551000324623462946B847D8F80030DB6A404671
:1055200003B0BDE8F043184701F00303B0F90A20C7
:105530008376C907B0F9083059BF8381C28182815F
:10554000C381704730B54281C281074A074D01814E
:10555000002481814FF0FF31C0E9051244600560ED
:1055600004610477046230BD01010001189B0D0045
:105570002DE9F04F89B0CDE902120268BDF94880EB
:105580000493BDF94C3052690593BDF850A0044610
:10559000904718F107024FF0000648BF08F10E02CD
:1055A0004FEAE20B01963546039B019ABDF90410C0
:1055B0009A18059B8B4212B227DD049B33444FF0AF
:1055C000000906930FFA89F080451FFA89F117DD6B
:1055D0004F0705BF069BC0106D001D5C18BFEDB2E4
:1055E0002B060AD5029B206807921944836909B2E9
:1055F0001F4620465346B847079A09F10109E1E7DB
:10560000019B013301935E44CEE72368DB6A2046A9
:1056100009B0BDE8F04F18472DE9F04F2DED028B92
:1056200091B01646026ABDF874809DF878509DF8D6
:105630007C4003911F46BDF8703004938346002AD6
:1056400040F0C580B0F90C308B4240F34C81B0F98A
:105650000E30B34240F34781062313FB0513002BA2
:1056600040F3418106EBC403002B40F33C81037FF0
:105670001BB9AF2F84BF0137FFB2DBF800305846AB
:105680005B6998470522099200220592984A07EB28
:105690008703D3180C93B3B20693059A0C9B9B5CBB
:1056A0000793ABB20B93BDF80C300893039B02FB3E
:1056B00005F919FA83F90FFA89F308EE103A08236D
:1056C0000A93039B02EB030A4FF000090FFA8AFAD0
:1056D000079ADBF80030D20752D5012D1FFA89F264
:1056E0003ED1012C3CD19B6906991F46049B0A447C
:1056F00012B251465846B84709F101034FFA83F9EF
:10570000079B5B0807930A9B013B13F0FF030A9377
:10571000DED1059F01377BB20593099B013B13F056
:10572000FF030993B9D1049B43450FD0012DDBF84A
:1057300000303BD1012C39D10899CDF800800531DA
:105740001C6A3246082309B25846A047DBF80030ED
:10575000DB6A584611B0BDEC028BBDE8F04F18472C
:10576000069914FB02F20A44049901910094DB6942
:1057700018EE101A1F4612B22B465846B847BBE720
:10578000049A4245B8D0012D1FFA89F207D1012CA5
:1057900005D19B6906991F460A444346A8E7069926
:1057A000CDF8048014FB02F20A44DFE70B9ACDF82F
:1057B000048002EB8201089AE4000A441146009436
:1057C000DC6932462B4609B25846A047BEE7137A39
:1057D000516812680D92FF1AFFB201EBC70331F84E
:1057E000372006929A780992DA780B92012D93F974
:1057F000052093F906A00A9201D8012C57D9BDF9CA
:10580000283008930FFA8AF30793DBF800305846E4
:105810005B699847B3B24FF000080E931AFA86F30B
:10582000C14647460F930B9B9F428FD2079B0E9A10
:105830003B4403FB0423002205920F9A1BB202EBA8
:10584000070A08EE103A0FFA8AFA4346099A0599B0
:10585000914241D25A1CD2B25B070C9207D1069BEF
:1058600006990D9A01339BB212F80190069319F034
:10587000800F12D0012DDBF80030BDF80C101AD1CA
:10588000012C18D10A9A9B691144059A11441E46AD
:105890005246049B09B25846B047059E0136F3B202
:1058A0004FEA490905935FFA89F90C9BCEE700237B
:1058B000CDE90733A9E70598089A024402FB0511D0
:1058C000049ACDE90042DB6918EE102A1E4609B29F
:1058D0002B465846B047E0E7099B013798445FFAEA
:1058E00088F8FFB29FE711B0BDEC028BBDE8F08FE6
:1058F0000E960D00F0B5026A85B004460B46002AEC
:1059000034D10A2908D1438A0282427E03EBC203C2
:105910006382012005B0F0BD0D29FAD0E17E007E42
:10592000657E71B1B4F91060062111FB0061B4F914
:105930000C60B142C1BFB4F91210228201EBC50262
:105940006282E28A0192A28A0092CDE90205B4F94C
:105950001220B4F910102046FFF75EFE237E228A43
:1059600003EB430302EB43032382D2E70A2907D167
:1059700000230382937A417E428A01FB0323C7E717
:105980000D29C6D0157AA942C3D3517A9942C0D302
:1059900051685D1BEDB201EBC505AF782FB3E97817
:1059A00019B3E17E007E667E91B195F90510394408
:1059B000B4F9107000FB0171B4F90C70B94207DD45
:1059C00000272782B4F91210927A02FB0612628233
:1059D000E28A0192A28A0092CDE90206B4F912206D
:1059E000B4F910102046FFF717FE2979237E228A8A
:1059F00001FB0323B8E7012938BF01210176417675
:105A00007047000010B5064B03600446006D08B1F6
:105A100000F05EFF204600F049FA204610BD00BFAE
:105A2000709B0D0010B50446FFF7ECFF2046702177
:105A300002F0D1FC204610BD30B585B004460D46BD
:105A400002F09CFC104A1149CDE901214FF0FF32D0
:105A50008021034600922046202200F0ADFA0C4B34
:105A600023600023C4E9143504F1580000F068F8FD
:105A700004F1600000F064F804F1680000F060F8E0
:105A8000204605B030BD00BF801A0600A086010088
:105A9000709B0D0013B50446503000F011FF636D8C
:105AA000D90705D50222042104F1580000F05CF862
:105AB000636D9A0705D50022032104F1600000F010
:105AC00053F8636D5B0705D50222114604F16800A7
:105AD00000F04AF8012300933C220221204600F006
:105AE0006BFB02B010BD10B5436DD907044602D55B
:105AF000583000F046F8636D9A0703D504F1600052
:105B000000F03FF8636D5B0705D504F16800BDE860
:105B1000104000F036B810BD436D024613F001008E
:105B200003D002F1580000F05CB87047436D0246A4
:105B300013F0020003D002F1600000F052B8704789
:105B400000210A22C0E900127047002310B5044664
:105B5000C171837188B202F0A9FB08B10323A3715C
:105B600000F0A6FE206010BD38B50C460546114673
:105B7000A0B202F071FB21462846BDE83840FFF78D
:105B8000E4BF38B50446C07902F090FBA57900382F
:105B900025F0080318BF0120C5F340058542A37115
:105BA0000AD000F085FEA379206083F00203A37180
:105BB000A079C0F3C00038BD00F07AFE2368C01A97
:105BC000A3889842F4D3A37903F00103AB42EFD04A
:105BD00000F06EFEA379206083F0010343F0080318
:105BE000E5E7807900F00900A0F108035842584128
:105BF00070470368C9B29B681847704710B50446E0
:105C00006021006801F00EFF206801F016FFB0FA75
:105C100080F0400910BD38B505460C46006860218B
:105C200001F000FF2868036821469B6898472868B0
:105C3000002101F0FEFE08B1002038BD28680222D4
:105C4000602101F0ECFE286803681B699847002872
:105C5000F2D0286803685B6998470446286803689F
:105C60005B699847E4B244EA002080B2E5E7092185
:105C7000FFF7D1BF0C21FFF7CEBF70B504460E462B
:105C800000686021154601F0CDFE206803683146AA
:105C90009B689847E9B22068FFF7ABFF290A2068A4
:105CA000FFF7A7FF206801F0C8FEB0FA80F04009B6
:105CB00070BD70B504460D461646FFF7ACFF00F404
:105CC0007F4040EA060229462046BDE87040FFF7C3
:105CD000D4BF70B504460D461646FFF79CFFC0B210
:105CE00040EA062229462046BDE87040FFF7C5BFBE
:105CF00008B5FFF790FFC0F3072008BD2DE9F0417C
:105D000004469DF818700D46984616466AB1FFF78E
:105D100082FFC0B200EA080343EA07022946204690
:105D200036B1BDE8F041FFF7C4BFFFF7E1FFF1E78F
:105D3000BDE8F041FFF7CDBFB1F5A07F07B50ED2AA
:105D40009F290ED84F298CBF4023002300930122A6
:105D50003F230321FFF7D2FF03B05DF804FBC0230C
:105D6000F4E78023F2E707B500210091FE2301222A
:105D7000FFF7C4FF03B05DF804FB072907B50FD890
:105D800003290FD810D002290CBF0423002300934D
:105D90000122F1230321FFF7B1FF03B05DF804FBFB
:105DA0000E23F4E70C23F2E70823F0E707B50023FE
:105DB00000930122FE230321FFF7A0FF03B05DF84B
:105DC00004FB07B501220092FE230321FFF796FF93
:105DD00003B05DF804FB07B50F298CBF082300232F
:105DE00000930022F7230321FFF788FF03B05DF83B
:105DF00004FB07B5022300930122EF230421FFF7E0
:105E00007DFF03B05DF804FBC72907B516D8B32999
:105E100016D89F2916D88B2916D8772916D8632922
:105E200016D84A2994BF002101210091F8230022AD
:105E30000421FFF763FF03B05DF804FB0721F4E7DB
:105E40000621F2E70521F0E70421EEE70321ECE764
:105E50000221EAE738B504460846216001F0B0FDAA
:105E60002046FFF7CBFE054610B90025284638BD71
:105E70002046FFF7FFFEB0F5C37FF6D12046C821CC
:105E8000FFF7C2FF20462821FFF756FF20460821D2
:105E9000FFF773FF10212046FFF79DFF2046FFF715
:105EA000A8FF2046FFF782FFE0E7000010B5044B93
:105EB00003600446C06A08B100F036FF204610BDFA
:105EC0007CA00D0010B50446FFF7F0FF20465021DE
:105ED00002F081FA204610BD002910B54BDBB0F965
:105EE0000C408C4247DD002A45DBB0F90E4094425D
:105EF00041DD847E022C1FD0032C26D0012C04D13E
:105F00000489D24314440A4621B2012B23D0022B28
:105F100032D083BB002A13460489C06AB8BFD31DA0
:105F2000DB1013FB041102F0070201239340425CD3
:105F300022EA030242541EE00489C94321444489F1
:105F4000D243224409B212B2DFE74489C9430C4468
:105F5000114622B2D9E7002A04891346B8BFD31DDF
:105F6000DB1013FB0411C36A02F007000122824018
:105F7000585C02435A5410BD002A13460489C06A73
:105F8000B8BFD31DDB1013FB041102F0070201237D
:105F900003FA02F2435C5A40CCE710B5044690F98C
:105FA0003600012180B202F068F9606A18B1BDE8DC
:105FB000104000F048BF10BD70B504461D460026D5
:105FC000FFF7C0FA114B2360666215B902F0D6F9EB
:105FD0000546FF2384F8333084F836309DF91030BD
:105FE00084F837300A4BA363012384F83C30059BC7
:105FF000A3644FF6FF72069BA286C4E90A56266484
:10600000A4F84460E364204670BD00BF7CA00D008E
:10601000C89B0D00F8B50446806A0D4690B194F90E
:10602000301001F003FDA06A036800219B689847C7
:10603000A06A036829469B689847A06ABDE8F840B3
:1060400001F0FBBC94F93530014698B202F015F925
:10605000606A20B12946BDE8F84000F07BBF082601
:10606000802794F9330005EA070180B202F005F9B0
:1060700094F93400012180B202F0FFF894F9340061
:10608000002180B202F0F9F8013E4FEA5707E8D14B
:10609000F8BD38B50446806A0D4680B1A16C01F0A8
:1060A0008BFC002D204614BFA721A621FFF7B2FFCD
:1060B000A06A88B1E16CBDE8384001F07DBC606A3F
:1060C00018B104F1380100F0D7FE94F93600002130
:1060D00080B202F0D2F8E4E72046BDE83840FFF78E
:1060E0005CBF2DE9F8430446806A0D468F1840B323
:1060F00094F9301001F09AFCA06A036800219B68B3
:1061000098470126BD42A06A17D01F2E0CD901F076
:1061100094FC94F93010A06A01F088FCA06A03682E
:1061200000219B6898470126A06A15F8011B0368A7
:1061300001369B689847F6B2E4E7BDE8F84301F002
:106140007CBC94F93530014698B202F096F8AF4223
:1061500022D0606A15F8019B18B1494600F0FAFE9A
:10616000F5E708264FF0800894F9330009EA0801A2
:1061700080B202F082F894F93400012180B202F07A
:106180007CF894F93400002180B202F076F8013EE8
:106190004FEA5808E8D1DAE7BDE8F883B0F90A30E9
:1061A000DA1D48BF03F10E02B0F90830C06AD21000
:1061B0005A43002103F05AB82DE9FF411E46C36A35
:1061C0009DF8288004460F461546B3B12046FFF7D8
:1061D000E5FFB4F90A00B4F9081020281FDC2023D9
:1061E0000122CDE90132203873237339009300EB8B
:1061F000D070894B01EBD1711FE0B0F90A30D81D86
:1062000048BF03F10E00B4F90830C010584300F045
:1062100083FDE0620028D9D104B0BDE8F0814023BD
:106220004FF0010CCDE9013C522340385239009324
:106230007A4B00EBD07001EBD17140F34F0241F388
:106240004F012046FFF794F9A06A84F831700028C6
:1062500078D0002D74D1B4F90A30202B0CBF3C2526
:106260003D2584F83050B8F1000F01D001F0A8FBB3
:10627000FEB194F9370000281BDB012180B201F048
:10628000EBFF94F93700012180B201F0F6FF012005
:1062900001F00CF994F93700002180B201F0EDFF14
:1062A0000A2001F003F994F93700012180B201F0CE
:1062B000E4FFA06A002874D0A16C01F07DFB0422E9
:1062C00057492046FFF70DFFA17A0139C9B2204690
:1062D000FFF7A0FE534904222046FFF702FF94F97E
:1062E0003130012B0CBF102114212046FFF792FE04
:1062F00004224D492046FFF7F4FEA3684B4A93421F
:106300005CD14B4904222046FFF7EBFED921204601
:10631000FFF780FE94F93130012B0CBF2221F121CF
:106320002046FFF777FE204642490622FFF7D9FEB6
:10633000A06A002863D0E16C01F03EFB01206BE70E
:106340006DB28EE794F93500012180B201F084FF2F
:1063500094F93600012180B201F07EFF94F93600F5
:10636000012180B201F089FF656A3DB1B8F1000FEB
:106370003FF47EAF284600F055FD79E794F93300ED
:10638000012180B201F068FF94F93400012180B24C
:1063900001F062FF94F93400294680B201F06DFFEC
:1063A00066E7606A18B104F1380100F065FD94F900
:1063B0003600002180B201F060FF80E71E4A934260
:1063C0000ED11E4903222046FFF78BFE94F931308F
:1063D000012B0CBF9F21CF212046FFF71BFE95E725
:1063E000174A934292D1174903222046FFF779FEBC
:1063F00094F93130012B0CBF1021AF21ECE794F957
:106400003600012180B201F038FF606A002895D083
:1064100000F019FD92E700BF949E0D00D49B0D0083
:10642000DCA00D00E0A00D00E4A00D008000200025
:10643000EEA00D00E8A00D0080004000F2A00D00CD
:1064400060001000F5A00D0070B5002ABDF81050D6
:106450003DDBB0F90A40944239DD0029BEBF5B182C
:106460001BB20021B0F90840CE18A642C4BF631A7F
:106470001BB2002B2BDDC06AD61014FB06110144A1
:1064800002F0070001228240012DD2B216D0022D67
:106490000BD0E5B9D243D2B20B44994217D011F8D0
:1064A000010B104001F8010CF7E70B4499420ED0A4
:1064B00011F8010B504001F8010CF7E70B44994229
:1064C00005D011F8010B104301F8010CF7E770BD7E
:1064D000F0B50029BDF8146076DBB0F90850A94288
:1064E00072DA002ABCBFD21813B2B0F90A40B8BFA2
:1064F0000022D718A742C4BFA31A1BB2002B63DD2A
:10650000C2F3C404C76A15FB041112F00702DBB220
:1065100007EB010423D0C2F10802D2B22C4D934202
:106520003CBF4FF0FF0CA2EB030EAD5C3CBF4CFA3E
:106530000EFC0CEA0505012E07D0022E2ED04EB916
:1065400017F801C02CEA050503E017F801C045EA79
:106550000C057D54934237D3B0F908100C449A1AB5
:10656000D2B2072A0ED9022E1DD113462178C94373
:106570002170083BB0F90810DBB2072B0C44F5D8AA
:1065800002F0070202B3134B012E9B5C19D0022EBE
:106590001BD0CEB9227822EA030314E017F801C019
:1065A00085EA0C05D5E7002E14BFFF25002513460C
:1065B0002570083BB0F90810DBB2072B0C44F7D864
:1065C000DEE7227813432370F0BD22785340FAE7C8
:1065D000CCA00D00D4A00D0070B41446827EBDF88E
:1065E0000C60022A0DD0032A18D0012A11D1028989
:1065F000E443144424B203960A46214670BCFFF7D4
:1066000067BF42890589E44319441444691A24B2D6
:1066100009B20396224670BCFFF716BF458919449C
:10662000691A09B2E7E730B41446827EBDF8085013
:10663000022A0DD0032A18D0012A11D1E2180489A8
:10664000A41A24B202950A46214630BCFFF7FCBECC
:106650000289C9431144E2184489A41A09B224B238
:106660000295224630BCFFF733BF4289C94311442B
:1066700009B2E7E72DE9F8430446806A002842D0D2
:10668000A16C01F099F9474905222046FFF729FD41
:10669000217A01392046C9B2FFF7BCFCB4F90A30AF
:1066A000DE1D48BF03F10E06D4E90A052389F61062
:1066B00013FB06F615FA86F600283AD094F9301046
:1066C00001F0B4F9A06A036840219B68984701274C
:1066D000B542A06A24D01F2F0CD901F0AEF994F96D
:1066E0003010A06A01F0A2F9A06A036840219B68FB
:1066F00098470127A06A15F8011B036801379B68BA
:106700009847FFB2E4E7606A18B104F1380100F07D
:10671000B3FB94F93600002180B201F0AEFDB2E780
:1067200001F08BF9A06A78B3E16CBDE8F84301F0A1
:1067300043B994F93500012180B201F09EFDB542C4
:10674000F0D0606A15F8019B18B1494600F002FCD0
:10675000F5E708274FF0800894F9330009EA0801AB
:1067600080B201F08AFD94F93400012180B201F079
:1067700084FD94F93400002180B201F07EFD013FD8
:106780004FEA5808E8D1DAE794F93600012180B2DF
:1067900001F073FD606A18B1BDE8F84300F053BB27
:1067A000BDE8F883F8A00D0000F080BE00F080B8CE
:1067B000704770477047000003065ABF024B53F8FA
:1067C00020000020704700BF00A10D0003065ABF43
:1067D000024B53F820000020704700BF00A30D00BB
:1067E00008B5024B1B689B68019308BD6802030053
:1067F00008B5024B1B68DB68019308BD6802030003
:1068000008B5024B1B685B68019308BD2C020300AE
:1068100008B5024B1B689B68019308BD2C0203005E
:1068200008B5024B1B68DB68019308BD2C0203000E
:1068300008B5024B1B681B69019308BD2C020300BD
:1068400008B5024B1B685B69019308BD2C0203006D
:1068500008B5024B1B689B6A019308BD2C0203001C
:1068600008B5024B1B681B6B019308BD2C0203008B
:1068700008B5024B1B689B6F019308BD2C020300F7
:1068800008B5024B1B685B69019308BD6C020300ED
:1068900008B5024B1B685B68019308BD1802030032
:1068A00008B5024B1B68DB68019308BD18020300A2
:1068B00008B5024B1B685B69019308BD1802030011
:1068C00008B5024B1B681B6B019308BD480203000F
:1068D00008B5024B1B685B6B019308BD48020300BF
:1068E00008B5024B1B685B6C019308BD48020300AE
:1068F00008B5024B1B689B6C019308BD480203005E
:1069000008B5024B1B685B69019308BD6402030074
:1069100008B5024B1B681B6A019308BD64020300A3
:1069200008B5024B1B689B6A019308BD6402030013
:1069300008B5024B1B681B68019308BD3C020300AD
:1069400008B5024B1B68DB68019308BD3C020300DD
:1069500008B5024B1B681B69019308BD3C0203008C
:1069600008B5024B1B685B69019308BD3C0203003C
:1069700008B5024B1B689B69019308BD3C020300EC
:1069800008B5024B1B68DB69019308BD3C0203009C
:1069900008B5024B1B681B6A019308BD3C0203004B
:1069A00008B5024B1B689B6A019308BD3C020300BB
:1069B00008B5024B1B681B68019308BD2802030041
:1069C00008B5024B1B68DB68019308BD2802030071
:1069D00008B5024B1B689B69019308BD28020300A0
:1069E00008B5024B1B68DB69019308BD2802030050
:1069F00008B5024B1B681B6A019308BD28020300FF
:106A000008B5024B1B685B6A019308BD28020300AE
:106A100008B5024B1B689B6A019308BD280203005E
:106A200008B5024B1B68DB6A019308BD280203000E
:106A300008B5024B1B681B6B019308BD28020300BD
:106A400008B5024B1B685B6B019308BD280203006D
:106A500008B5024B1B681B6C019308BD280203009C
:106A600008B5024B1B681B6D019308BD280203008B
:106A700008B5024B1B689B69019308BD38020300EF
:106A800008B5024B1B68DB69019308BD380203009F
:106A900008B5024B1B681B6A019308BD380203004E
:106AA00008B5024B1B689B6A019308BD38020300BE
:106AB00008B5024B1B681B6B019308BD380203002D
:106AC00008B5024B1B689B6B019308BD380203009D
:106AD00008B5024B1B681B68019308BD3002030018
:106AE00008B5024B1B685B69019308BD30020300C7
:106AF00008B5024B1B68DB69019308BD3002030037
:106B000008B5024B1B681B6A019308BD30020300E5
:106B100008B5024B1B685B6A019308BD3002030095
:106B200008B5024B1B68DB6B019308BD3002030004
:106B300008B5024B1B681B6C019308BD30020300B3
:106B400008B5024B1B685B6C019308BD3002030063
:106B500008B5024B1B681B68019308BD4C0203007B
:106B600008B5024B1B685B68019308BD4C0203002B
:106B700008B5024B1B681B69019308BD4C0203005A
:106B800008B5024B1B685B69019308BD4C0203000A
:106B900008B5024B1B689B69019308BD4C020300BA
:106BA00008B5024B1B68DB69019308BD4C0203006A
:106BB00008B5024B1B681B6A019308BD4C02030019
:106BC00008B5024B1B685B6B019308BD60020300B4
:106BD00008B5024B1B681B6D019308BD60020300E2
:106BE00008B5024B1B685B68019308BD20020300D7
:106BF00008B5024B1B685B69019308BD20020300C6
:106C000008B5024B1B68DB6A019308BD2002030034
:106C100008B5034B1B68D3F88830019308BD00000A
:106C20002002030008B5034B1B68D3F8943001938E
:106C300008BD00002002030008B5024B1B685B681A
:106C4000019308BD4002030008B5024B1B689B6816
:106C5000019308BD4002030008B5024B1B68DB68C6
:106C6000019308BD4002030008B5024B1B681B6975
:106C7000019308BD4002030008B5024B1B685B6925
:106C8000019308BD4002030008B5024B1B689B69D5
:106C9000019308BD4002030008B5024B1B68DB6985
:106CA000019308BD4002030008B5024B1B681B6A34
:106CB000019308BD4002030008B5024B1B681B6B23
:106CC000019308BD4002030008B5024B1B685B6BD3
:106CD000019308BD4002030008B5024B1B681B6C02
:106CE000019308BD4002030008B5024B1B685B6CB2
:106CF000019308BD4002030008B5024B1B689B6866
:106D0000019308BD4402030008B5024B1B68DB6B0E
:106D1000019308BD4402030008B5024B1B681B68C1
:106D2000019308BD1C02030008B5024B1B685B6899
:106D3000019308BD1C02030008B5024B1B689B6849
:106D4000019308BD1C02030008B5024B1B68DB69F8
:106D5000019308BD1C02030008B5024B1B685B6A67
:106D6000019308BD1C02030008B5024B1B68DB6BD6
:106D7000019308BD1C02030008B5024B1B685B6C45
:106D8000019308BD1C020300002240681146FFF772
:106D90008BBF002240681146FFF796BF4068002273
:106DA000FFF78ABF4068002281F00101FFF774BF3E
:106DB000002340681A461946FFF766BF0023406863
:106DC0001A461946FFF758BF002240681146FFF7E0
:106DD0004BBF002240681146FFF736BF40680022D3
:106DE0000221FFF739BF002340681A46FFF724BF8E
:106DF000024B03225A60024A1A60704750E6032091
:106E000008A50D000021FFF793BE0021FFF798BEF3
:106E100010B5044608462170FFF76AFE0023636040
:106E2000204610BD10B504460078FFF7EBFF48B9C7
:106E300020784FF6FF71FFF74BFE2078BDE8104039
:106E4000FFF7E3BF10BD0078FFF7DFBF400830B5A4
:106E50001860002418688842E5B206D90134082C6D
:106E600002D040081860F5E70725024B5B5D137000
:106E700030BD00BF3CA50D002DE9F04306468FB0A4
:106E800000780C46FFF7BEFF00281BDB3578142284
:106E9000002109A802F0EAF90B23002209A92846DB
:106EA000ADF82430FFF734FE9DF82D3013B19DF876
:106EB0002C5055B10027B946B846012523795DB15C
:106EC000C3B100200FB0BDE8F083DDF830809DF83D
:106ED00034909DF83570F1E7002B35D1A368434518
:106EE00008D18DF820908DF82170BDF82020A3895D
:106EF0009A42E6D00023A1688DF80F300A9804ABBF
:106F00000DF10F02FFF7A2FF217985B989B9A368B6
:106F100043450ED38DF820908DF82170BDF82020C8
:106F2000A3899A4205D1049B434502D1C9E70029B0
:106F3000F9D100230193637B00939DF80F20237BFD
:106F40003078FFF7EDFDBCE7CDE900552B462A462A
:106F50000121F5E708B50078FFF7C2FDC0B208BD12
:106F600010B50446006818B1FFF7DEFE0023236069
:106F700010BD10B50446FFF7F3FF204610BD00001A
:106F800010B5094B094C022200201A60084B206002
:106F9000A080A071A360FFF723FE2046054A0649A2
:106FA000BDE8104001F012BA64E6032058E6032061
:106FB0000000FFFF68E50320736F0D0010B5044665
:106FC00002F092F9013823182046834206D902784C
:106FD000197800F8011B03F80129F6E710BD70B518
:106FE0000C46911E2229054622D820466DB1B5FBDC
:106FF000F2F602FB1655E9B2092D94BF3031573134
:10700000C9B200F8011B3546F0E70246234430219F
:10701000934202D902F8011BFAE71A1A834238BFD9
:107020000022002383542046FFF7C8FF204670BD8E
:107030000020FCE770B586B0064601AD684600F05A
:1070400069FB0FCD341D0FC42B682370304606B08A
:1070500070BD00002DE9F04757EC106B80460C46E0
:1070600010EE100A00220023394601F0F9FE28B183
:1070700007F100431F462D2304F8013B00234FF086
:1070800001090A22D9B2884503D902FB09F9013363
:10709000F8E7484601F008FC32463B4601F06EFC3A
:1070A00006460F4601F03CFF05468A4601F030FCDB
:1070B00002460B463046394601F0A8FA134B00222F
:1070C00001F0E2FE10B101354AF1000A4A462846B5
:1070D000D317514601F00CFF0123154621460A2221
:1070E000FFF77DFFB8F1000F0DD0204602F0FCF84D
:1070F0002E23211823540A22434628460131BDE895
:10710000F047FFF76CBFBDE8F08700BF0000E03F2D
:1071100010B504460068FFF707FE204610BD10B505
:107120000446006808B1FFF7FFFD0023C4E90133FE
:10713000236010BD38B504460D4600680131FFF7E5
:10714000FBFD10B1C4E90005012038BD10B503688E
:10715000044623B143688B4201D3012010BD204671
:10716000FFF7E8FF0028F9D0A368002BF5D12268CB
:107170001370F2E737B50D46114601920446FFF74A
:10718000E5FF019A28B92046FFF7C9FF204603B062
:1071900030BDA2602946206802F05AF82268A36830
:1071A0000021D154F2E7002313B5C0E900330446AF
:1071B0008360037341B10846019102F095F801998B
:1071C00002462046FFF7D6FF204602B010BD884297
:1071D00010B5044605D00B682BB18A681946FFF735
:1071E000C9FF204610BDFFF79AFFFAE710B500234C
:1071F0000446C0E9003383600373FFF7E8FF2046CD
:1072000010BD13B5044659B10846019102F06CF85F
:10721000019902462046FFF7ADFF204602B010BD9F
:10722000FFF77DFFF9E710B504468AB00023084652
:10723000C4E90033A360237301A9C0B2FFF70AFFBA
:1072400001A92046FFF7DDFF20460AB010BD70B54A
:1072500005460E4609B9002070BD6AB18468144421
:107260002146FFF773FF0028F5D02868AB68314648
:10727000184402F031F8AC600120EDE710B58A68DF
:1072800009680446FFF7E3FF10B92046FFF747FF00
:10729000204610BD13B5044629B92046FFF73FFF2D
:1072A000204602B010BD0846019102F01DF8019978
:1072B00002462046FFF7CBFF0028EED0F0E710B5DE
:1072C0000446006808B1FFF713FB204610BD10B557
:1072D0008368044613B1032201469847204610BD37
:1072E00010B5064C002320462360FFF7F9FA20462C
:1072F000034A0449BDE8104001F068B868E603207D
:1073000068E50320BF720D00F8B506460D468F18DC
:107310000024BD420CD0336815F8011B9B68304631
:107320009847031E01DB1C44F3E7002C08BF1C46F2
:107330002046F8BD13B50446084659B1019101F045
:10734000D3FF23680199DB680246204602B0BDE8FE
:107350001040184702B010BD08B5FFF7EBFF08BD9D
:1073600003689B68184738B50D210546FFF7F8FFFD
:107370000A2104462846FFF7F3FF204438BD38B5FC
:107380000546FFF7D7FF04462846FFF7ECFF2044E9
:1073900038BD30B58BB000238DF82430012A98BF5A
:1073A0000A2209AC0D46B1FBF2F101FB125303F0C6
:1073B000FF03092B94BF30333733DBB2AA4204F802
:1073C000013DEFD92146FFF7B5FF0BB030BD2DE9E8
:1073D000F04186B000AF05460E46381D1421144614
:1073E0003B60FFF7B9FC13280ED8391D2846FFF77C
:1073F000A1FF04461EB12846FFF7B5FF044420460E
:107400001837BD46BDE8F08100F1080323F00703FB
:10741000E846ADEB030D2246411C3B686846FFF78A
:107420009BFC69462846FFF785FF0446C546E1E711
:1074300010B50446FFF73CFAE060236820465B691C
:107440009847002808DAFFF733FAE368C01AA36800
:107450009842F2D34FF0FF3010BDF8B506460D4606
:1074600017460024BC4207D03046FFF7E1FF031E59
:1074700002DB2B550134F5E72046F8BD00234068B8
:107480001A461946FFF7F8BB014B024A1A607047CB
:107490006CE603204CA50D00024B1A68024B1A60E3
:1074A000704700BF00E5032070E603200021FFF7CE
:1074B0009FBB10B50446FFF70AFF204610BD000031
:1074C0000348044A04490023836000F07FBF00BFE3
:1074D00074E6032068E50320B3740D00014B1860C7
:1074E000704700BF04E5032008B50B4B43B100F023
:1074F0007DF903681B699847002801DDAFF3008020
:10750000064B43B100F0F0F903681B699847002867
:1075100001DDAFF3008008BD0000000000000000A6
:1075200008B5FFF7E1FFFFF7C3F9014B186008BD8D
:10753000D4E703200248034A0349121A01F088BE27
:1075400000F4032004F4032028A90D0007B500234C
:1075500000931A466FF07701FFF764FB03B05DF804
:1075600004FB000007B543880A2B08D0502B0BD131
:10757000094B1B684BB103B05DF804EB1847FFF7EC
:10758000E5FF03B05DF804FB002300931A466FF09B
:107590007701FFF747FBF4E788E6032038B5124C84
:1075A0001248134D0021FFF7E7FB2368AB42114B54
:1075B0000CBF012200221A7002D0FFF7BBFF25602A
:1075C000FFF766F9044601F059FE0B4B13B1204654
:1075D000AFF3008000210848FFF796FBBDE8384074
:1075E00006480021FFF714BB00F40320DD740D00F2
:1075F0001E1C279A84E603200000000065750D001C
:10760000704710B51821044600F0E5FE204610BD75
:10761000F0B5037D062B8DB00E4600F104074FF048
:10762000000412D000F1080515F8011D0A223046A9
:10763000FFF7AFFEAF42044419D0002CF4D02E2146
:107640003046FFF78DFE0444EEE72F236A463946A5
:107650000A208DF80040FFF753F9684601F044FE18
:1076600033680246DB686946304698470446204640
:107670000DB0F0BD10B5054B0446112240F8043B97
:10768000002101F0F3FD204610BD00BF74A50D00E0
:107690000346074A10B543F8042B01F1100251F8D4
:1076A000044B43F8044B9142F9D10A781A7010BD8B
:1076B00074A50D00037D042B04D14068003818BF69
:1076C00001207047062B07D143683BB983682BB96B
:1076D000C3681BB90069F1E70020704701207047BB
:1076E00010B59DF8084044EA032343EA024242EA07
:1076F000016104234160037510BD000037B5044DDE
:1077000005609DF818500095FFF7EAFF03B030BD03
:1077100074A50D0013B5054B0360CB7800938B78EF
:107720004A780978FFF7DCFF02B010BD74A50D00A0
:1077300041747047704708B50021007CFFF728FAB4
:1077400040EAE07008BD08B50121007CFFF720FA8F
:1077500040EAE07008BD08B5007CFFF711FA20EAA6
:10776000E07008BD08B5007CFFF702FA20EAE0707F
:1077700008BD13B50446007C0191FFF701FA00280B
:10778000019901DC607C20B1207CFFF709FA20EA36
:10779000E07002B010BD007CFFF70ABA10B51421EA
:1077A000044600F018FE204610BD000010B54FF44E
:1077B0007A73044608460021C4E90113044B236090
:1077C0000123207463741146FFF7C2F9204610BDEF
:1077D00088A50D00007C0022FFF7C2B910B5142265
:1077E0000446002101F042FD204610BD10B5104CAA
:1077F00088B003A8FFF7F2FF2178BFF35B8F11F089
:10780000010111D120460191FCF756FC019958B1B4
:1078100003AA0848FFF7CAFF2046FCF752FC064AB5
:107820000649044800F0D2FD024808B010BD00BF70
:107830008CE6032090E6032068E5032035770D00F1
:1078400070474174704708B5007CFFF7A9F820EA3B
:10785000E07008BD08B5007CFFF77AF820EAE07018
:1078600008BD08B5007CFFF783F840EAE07008BD6A
:1078700008B5007CFFF774F840EAE07008BD007CB2
:10788000FFF77EB837B5457C04462DB1207C03B0A8
:10789000BDE83040FFF754B8007C0191FFF780F855
:1078A00000280199F2DC284603B030BD10B5142140
:1078B000044600F090FD204610BD000010B54FF0CA
:1078C000000C0446084611464FF47A72C4E901C21E
:1078D000044A22600122207462741A46FFF728F8D5
:1078E000204610BDB8A50D0013B50E4C2178BFF38E
:1078F0005B8F11F0010112D120460191FCF7DCFBF6
:10790000019960B1084A094B0948FFF7D7FF2046A3
:10791000FCF7D7FB074A0849054800F057FD044823
:1079200002B010BDA4E60320A8E603202CE7032044
:10793000B0E7032068E5032041780D007047F8B5F3
:10794000064615460C468F18BC4206D0336814F81C
:10795000011B9B6830469847F6E72846F8BD007C37
:107960000022FFF745B8007C0021FFF749B8007CF2
:107970000021FFF74DB8007C0021FFF751B8007CD3
:107980000021FFF755B810B51421044600F023FD7F
:10799000204610BD10B54FF47A7304460846002106
:1079A000C4E90113034B236020741146FFF750F81C
:1079B000204610BDE8A50D00007C0022FEF7F8BFB0
:1079C0000023007C1A461946FEF7FABF7FB5002255
:1079D0001423CDE90122ADF804300B788DF808307E
:1079E0004B680393CB680493007C0B7A059301A941
:1079F000FFF736F807B05DF804FB1FB5003B8DF8C4
:107A000000104FF06401039118BF012369460192F1
:107A10008DF80830FFF7DAFF05B05DF804FB0123AD
:107A2000FFF7EBBF007C0022FEF7D2BFC9B2FFF721
:107A3000F9BF007C0022FEF7D3BF0121FFF7F9BF99
:107A400013B503688DF80710DC6B01224FF0FF338C
:107A50000DF10701A04702B010BD10B40368DC6B44
:107A60004FF0FF33A4465DF8044B604713B513464F
:107A700002688DF80710D46B0DF107010122A047B1
:107A800002B010BD704738B543691A68002A054630
:107A900010DAB3F88620B3F884309A420AD103682A
:107AA0001B699847044628B92B682846DB6A984723
:107AB000204638BD0120FCE743691868C043C00F69
:107AC00070477047064B994210B500F10C0405D081
:107AD000084600F085FC002808BF0024204610BDA1
:107AE00044A50D0010B5AC21044600F074FC2046FE
:107AF00010BDFCF7D4BA2DE9F0414FF0000886B074
:107B00001D46C0F8048004460E4617464146102222
:107B100002A801F0ABFB6B1C09D04FF47A70B5FBE7
:107B2000F0F3CDE9023800FB135358430490606929
:107B300010230093006802AB41F2050240F6FF718A
:107B4000FEF796FF002807DAFFF70EF90368636077
:107B5000002006B0BDE8F0816069002300683A4665
:107B60003146FEF7A5FF031EEEDB1846F1E70000E5
:107B700038B584690A4B036005467CB16368013BF4
:107B800063605BB9236820469B689847A368013B04
:107B9000A3601BB923682046DB689847284638BD98
:107BA00044A60D0010B50446FFF7E2FF20461C2155
:107BB00000F011FC204610BD70B54D69054B044620
:107BC0008C3544F8043B06460FCD0FC42B68237058
:107BD000304670BD74A50D0010B54369B3F886201A
:107BE000B3F884309A42044605D06369B3F8842020
:107BF0001344187910BD03681B6998470028F4D115
:107C00004FF0FF30F6E710B54369B3F88620B3F8BC
:107C100084309A42044608D06369B3F88420511C2A
:107C2000A3F884101344187910BD03681B699847A2
:107C30000028F1D14FF0FF30F6E7F8B54369174659
:107C4000B3F88620B3F884309A4205460E4616D023
:107C50006969B1F88430B1F88640E41ABC4228BFA3
:107C60003C46043322461944304601F0F1FA6A6971
:107C7000B2F884302344A2F884302046F8BD03686B
:107C80001B6998470028E3D14FF0FF34F5E74269BC
:107C90000023A2F884304269A2F8863070472DE9AB
:107CA000F0411F4603680C46DB6A8AB0054616465B
:107CB0009847237DD5F81480042B0CBF02200A209E
:107CC00006220121FEF7FCFEC8F800006B691B6864
:107CD000002B08DA2B682846DB6A002498472046E8
:107CE0000AB0BDE8F0812846FFF7D1FFB7B1002305
:107CF00003A9F8B20393ADF81030FEF7C1FD0028D8
:107D0000E8D1686906230093006803AB41F20B02D7
:107D100040F6FF71FEF7ACFE0028DBD11C220021EB
:107D200003A801F0A3FA237D042B1DD14FF40773A0
:107D30003046ADF80C30FEF7F3FDADF80E0060688C
:107D4000FEF7E6FD04906B691C22186803A9FEF794
:107D50009FFE0028BED104340FCC6D698C350FC551
:107D600023682B700124BAE740F61C233046ADF897
:107D70000C30FEF7D5FD05AEADF80E00231D04F165
:107D8000140718685968324603C20833BB421646C6
:107D9000F7D1D8E730B54269B2F886308BB00446E7
:107DA0002BB1B2F884209A4201D1FFF770FF6169CC
:107DB0000868002818DBB1F886507F2D14D80431EC
:107DC0000823C5F180022944FEF76AFE002813DD6E
:107DD0006369B3F886200AB9A3F884206369B3F80D
:107DE00086201044A3F886006369B3F88600B3F8D0
:107DF0008430C01A0BB030BDFEF7B6FF03680B2B02
:107E0000F2D0FEF7B1FF03680B2BEDD02023002545
:107E1000CDE90235FEF7A8FF03680193084B094935
:107E2000009302AA2B463220FEF7D2FE636918683F
:107E3000FEF726FE63694FF0FF321A60D4E700BFF9
:107E40000FA60D0008A60D0010B54369044618687A
:107E5000002801DBFEF714FE63694FF0FF321A6061
:107E60006069112200218C3001F000FA2046BDE843
:107E70001040FFF70CBF10B5002304460160C0F8A6
:107E800084308830FFF7F6FB204610BD73B5002321
:107E90004FF47A72C0E901320E4A03610260436115
:107EA0000446AC200191FCF7F6F8051E05F10C061E
:107EB00008D00123C5E90133074B01992B603046F7
:107EC000FFF7D9FF2046C4E90565FFF7E0FE02B0E1
:107ED00070BD00BF44A60D0028A60D0010B54FF0E0
:107EE000FF310446FFF7D2FF204610BD10B504460F
:107EF0000068002801DBFEF7C3FD204610BD0C30F2
:107F0000FFF7F4BF2DE9F0439846036893B00D46A0
:107F10000024DB6A06461746984728466B462246E9
:107F200021460094FEF764FC0546002863D1009BBF
:107F3000002B4BD05B69002B48D006A8FFF79AFBBB
:107F4000009B5C696378022B04D1211D06A8FFF712
:107F500071F826E00A2B24D11122294601A801F04C
:107F600085F9A368002B38D004F108030DF1040C47
:107F7000183418685968624603C20833A34294460D
:107F8000F7D1062301A90CA88DF81430FFF780FB68
:107F90000DF1340CBCE80F0007AC0FC4DCF8003066
:107FA000237006A8FFF786FB80B1336807ADD3F8CE
:107FB0002090124B0C930FCD0DAC0FC42B68237087
:107FC0003A4643460CA93046C84705460098FEF796
:107FD00007FC284613B0BDE8F083E368002BC3D14B
:107FE0004FF6FF70D4F81090FEF792FC8145BBD19C
:107FF00004F11401AAE72546E8E700BF74A50D00C7
:10800000002240681146FEF72FBE0022406811464C
:10801000FEF74ABE002240681146FEF755BE406892
:108020000022FEF749BE4068002281F00101FEF700
:1080300033BE002340681A461946FEF725BE0022CB
:1080400040681146FEF700BE406800220221FEF79C
:1080500003BE002340681A46FEF7EEBD024B042221
:108060005A60024A1A607047C4E7032090A60D00C8
:10807000002340681A46FEF7DFBD40680022022157
:10808000FEF7EABD002240681146FEF7DDBD002282
:1080900040681146FEF7E8BD002340681A461946BD
:1080A000FEF7EABD002340681A461946FEF7ECBD0C
:1080B00040680021FEF710BE40680021FEF714BEA4
:1080C0004068002281F00101FEF7E6BD4068002211
:1080D000FEF7F2BD002240681146FEF7F5BD002212
:1080E00040681146FEF7E0BD2DE9F043002495B04D
:1080F00016460D460746FFF7BDFA214618220EA880
:10810000009401F0B3F84023CDE90C3421466B46CE
:108110000CAA3046FEF76CFB044600284CD1024600
:1081200001216868FEF7A0FD0221804622466868AA
:10813000FEF79AFD009E81462146002E3CD0002984
:108140003AD17368022B03D00A2B11D0F669F4E7F9
:10815000B8F1000F0AD0716906A8043107ADFFF726
:10816000D9FA0FCD3C1D0FC42B6823704146EDE7B3
:10817000B9F1000F01D14946E8E77469102201A85E
:1081800001F074F806238DF8143001AD04F10803F2
:108190001834186859682A4603C20833A3421546A2
:1081A000F7D101A906A807ADFFF772FA0FCD3C1D64
:1081B0000FC42B682370DEE70098FEF711FB3846EA
:1081C00015B0BDE8F0830000024B034A1A6000229C
:1081D0005A607047CCE70320CCA60D00232813B5C6
:1081E00002D9002002B010BDA0F10B03022B1AD857
:1081F000174C2178BFF35B8F11F001010BD12046A2
:108200000191FBF759FF019928B11248FEF700FED2
:108210002046FBF756FF0F4B1878FEF771FC00283D
:10822000DFD10120DEE7012809D800F0A7F80021FE
:10823000007CFEF705FC80F00100C0B2D2E70938EF
:108240000128EED8FFF750FB007CFEF7A1FBF2E718
:1082500044E6032048E60320232838B504460D46AB
:108260000AD8FF2908D0FFF7B9FF28B129462046D0
:10827000BDE83840FEF7CCBA38BD38B504460D46E7
:10828000FEF7CEFAFF2810D0062804D84D2323FA93
:1082900000F0C30709D42046FFF7A0FF28B1294604
:1082A0002046BDE83840FEF7C3BA38BD10B50446D5
:1082B000FEF7B6FA031FDBB2012B08D92046FFF701
:1082C0008DFF20B12046BDE81040FEF7B9BA00206E
:1082D00010BD0D2810B504469CBF0E34A4B2204634
:1082E000FFF77CFF50B103212046FEF789FA0328EF
:1082F00004D12046BDE81040FEF7B2BA002010BD00
:1083000038B504460D46FFF769FFF0B10421204659
:10831000FEF776FA042805D1A9B22046BDE8384018
:10832000FEF796BA02212046FEF76AFA02280CD11F
:108330002046FEF775FA012801D0042805D1294608
:108340002046BDE83840FEF793BA38BD38B5002363
:108350002025438014230446038085600561064977
:10836000284600F03AF804496060284600F035F8E5
:10837000E060204638BD00BF00A70D0030B50F4DAE
:108380002978BFF35B8F11F0010487B013D1284621
:10839000FBF792FE78B101A8FFF7D8FF01AA2146AA
:1083A0000748FFF7F7FA2846FBF78BFE054A064910
:1083B000034800F00BF8024807B030BDD8E70320AF
:1083C000DCE7032068E503203D790D000B460146FC
:1083D000184600F02FBFFBF762BEFBF75EBE000041
:1083E000014900F0F9B800BF1CA70D007FB50024BB
:1083F0001023CDE90234036800949E698DF804408F
:1084000015466B461268B0479DF8043003F006032A
:10841000062B03BF009B2B600120204604B070BDDB
:108420000098904214BF01200620704710B5034BFE
:108430000360044600F0CDF8204610BD5CA70D0097
:1084400010B50446FFF7F2FF20460821FFF7C3FFEF
:10845000204610BD2DE9F0411F46DDE90834DDF866
:10846000188098450646154607D1079900F0B4F8DC
:1084700018B165710020BDE8F0813946304600F042
:10848000ABF80028F6D00123C4F800802571A37151
:10849000F0E738B515461C4600F09EF820B10823D9
:1084A000E36006232560237138BD73B505460C468D
:1084B00001921E4600F090F850B9032E08D82368A8
:1084C000019A5B692946204602B0BDE87040184712
:1084D00002B070BD10B5034B03600446FFF7A6FF62
:1084E000204610BDBCA70D0010B50446FFF7F2FFF3
:1084F00020460C21FFF76FFF204610BDF7B5089FFF
:10850000974205460E4614460AD0A86802680897A6
:10851000156A31462246AC4603B0BDE8F0406047DC
:108520001946019300F058F8019B0028EDD0062071
:1085300003B0F0BD2DE9F14F0D461946DDE90A4BB8
:10854000DDE90CA681461746984600F045F890B143
:10855000002D3460377109DB61198A450CBF062193
:108560000121B171002001B0BDE8F08F0235F9D1D1
:108570000123B371F6E7544506D15946484600F049
:108580002BF808B17771EDE7D9F808000368CDE959
:108590000CA6CDE90A4BDC693A4643462946A44677
:1085A00001B0BDE8F04F60472DE9F04107460C46A9
:1085B00015461E46FFF76DFF48B9B86803689F6906
:1085C0002A4633462146BC46BDE8F0416047BDE837
:1085D000F081704700207047814208B50ED0406896
:1085E00003782A2B0CD049680B782A2B08BF01315D
:1085F00000F068FEB0FA80F0400908BD0120FCE7F9
:108600000020FAE781F0004102E000BF83F0004360
:1086100030B54FEA41044FEA430594EA050F08BF1D
:1086200090EA020F1FBF54EA000C55EA020C7FEAE1
:10863000645C7FEA655C00F0E2804FEA5454D4EB5E
:108640005555B8BF6D420CDD2C4480EA020281EA28
:10865000030382EA000083EA010180EA020281EA60
:108660000303362D88BF30BD11F0004F4FEA0131B2
:108670004FF4801C4CEA113102D0404261EB4101C1
:1086800013F0004F4FEA03334CEA133302D0524247
:1086900063EB430394EA050F00F0A780A4F1010403
:1086A000D5F1200E0DDB02FA0EFC22FA05F280183D
:1086B00041F1000103FA0EF2801843FA05F3594123
:1086C0000EE0A5F120050EF1200E012A03FA0EFCA2
:1086D00028BF4CF0020C43FA05F3C01851EBE371CC
:1086E00001F0004507D54FF0000EDCF1000C7EEBE9
:1086F00000006EEB0101B1F5801F1BD3B1F5001F27
:108700000CD349085FEA30004FEA3C0C04F1010445
:108710004FEA445212F5800F80F09A80BCF1004F6E
:1087200008BF5FEA500C50F1000041EB045141EAF0
:10873000050130BD5FEA4C0C404141EB0101013CB9
:1087400028BFB1F5801FE9D291F0000F04BF0146A8
:108750000020B1FA81F308BF2033A3F10B03B3F17A
:1087600020020CDA0C3208DD02F1140CC2F10C020A
:1087700001FA0CF021FA02F10CE002F11402D8BF68
:10878000C2F1200C01FA02F120FA0CFCDCBF41EA34
:108790000C019040E41AA2BF01EB0451294330BD03
:1087A0006FEA04041F3C1CDA0C340EDC04F11404E0
:1087B000C4F1200220FA04F001FA02F340EA0300B7
:1087C00021FA04F345EA030130BDC4F10C04C4F1FD
:1087D000200220FA02F001FA04F340EA03002946DD
:1087E00030BD21FA04F0294630BD94F0000F83F427
:1087F000801306BF81F480110134013D4EE77FEA0A
:10880000645C18BF7FEA655C29D094EA050F08BF55
:1088100090EA020F05D054EA000C04BF1946104636
:1088200030BD91EA030F1EBF0021002030BD5FEA7A
:10883000545C05D14000494128BF41F0004130BDA2
:1088400014F580043CBF01F5801130BD01F00045F6
:1088500045F0FE4141F470014FF0000030BD7FEA69
:10886000645C1ABF194610467FEA655C1CBF0B4664
:10887000024650EA013406BF52EA033591EA030F7B
:1088800041F4002130BD00BF90F0000F04BF002173
:10889000704730B54FF4806404F132044FF00005A6
:1088A0004FF0000150E700BF90F0000F04BF00211F
:1088B000704730B54FF4806404F1320410F0004585
:1088C00048BF40424FF000013EE700BF42004FEA80
:1088D000E2014FEA31014FEA02701FBF12F07F43FD
:1088E00093F07F4F81F06051704732F07F4208BFB4
:1088F000704793F07F4F04BF41F40021704730B5BB
:108900004FF4607401F0004521F000411CE700BF06
:1089100050EA010208BF704730B54FF000050AE089
:1089200050EA010208BF704730B511F0004502D58A
:10893000404261EB41014FF4806404F132045FEA8C
:10894000915C3FF4D8AE4FF003025FEADC0C18BF35
:1089500003325FEADC0C18BF033202EBDC02C2F127
:10896000200300FA03FC20FA02F001FA03FE40EAB9
:108970000E0021FA02F11444BDE600BF70B54FF0BD
:10898000FF0C4CF4E06C1CEA11541DBF1CEA13559B
:1089900094EA0C0F95EA0C0F00F0DEF82C4481EA03
:1089A000030621EA4C5123EA4C5350EA013518BF23
:1089B00052EA033541F4801143F4801338D0A0FB10
:1089C00002CE4FF00005E1FB02E506F00042E0FBBD
:1089D00003E54FF00006E1FB03569CF0000F18BFC3
:1089E0004EF0010EA4F1FF04B6F5007F64F540746B
:1089F00004D25FEA4E0E6D4146EB060642EAC621FE
:108A000041EA55514FEAC52040EA5E504FEACE2E6A
:108A1000B4F1FD0C88BFBCF5E06F1ED8BEF1004F6D
:108A200008BF5FEA500E50F1000041EB045170BDE9
:108A300006F0004646EA010140EA020081EA03012D
:108A4000B4EB5C04C2BFD4EB0C0541EA045170BD29
:108A500041F480114FF0000E013C00F3AB8014F1A3
:108A6000360FDEBF002001F0004170BDC4F10004EC
:108A7000203C35DA0C341BDC04F11404C4F120056D
:108A800000FA05F320FA04F001FA05F240EA0200C8
:108A900001F0004221F0004110EBD37021FA04F6FE
:108AA00042EB06015EEA430E08BF20EAD37070BDB8
:108AB000C4F10C04C4F1200500FA04F320FA05F017
:108AC00001FA04F240EA020001F0004110EBD37019
:108AD00041F100015EEA430E08BF20EAD37070BD89
:108AE000C4F1200500FA05F24EEA020E20FA04F362
:108AF00001FA05F243EA020321FA04F001F0004111
:108B000021FA04F220EA020000EBD3705EEA430E81
:108B100008BF20EAD37070BD94F0000F0FD101F0B0
:108B20000046400041EB010111F4801F08BF013CE9
:108B3000F7D041EA060195F0000F18BF704703F027
:108B40000046520043EB030313F4801F08BF013DAE
:108B5000F7D043EA0603704794EA0C0F0CEA13556A
:108B600018BF95EA0C0F0CD050EA410618BF52EA24
:108B70004306D1D181EA030101F000414FF000002A
:108B800070BD50EA410606BF1046194652EA430638
:108B900019D094EA0C0F02D150EA013613D195EAAC
:108BA0000C0F05D152EA03361CBF104619460AD1F4
:108BB00081EA030101F0004141F0FE4141F47001FE
:108BC0004FF0000070BD41F0FE4141F4780170BDEE
:108BD00070B54FF0FF0C4CF4E06C1CEA11541DBF53
:108BE0001CEA135594EA0C0F95EA0C0F00F0A7F855
:108BF000A4EB050481EA030E52EA03354FEA013182
:108C000000F088804FEA03334FF0805545EA131394
:108C100043EA12634FEA022245EA111545EA10655C
:108C20004FEA00260EF000419D4208BF964244F1F3
:108C3000FD0404F5407402D25B084FEA3202B61A12
:108C400065EB03055B084FEA32024FF480104FF4E6
:108C5000002CB6EB020E75EB030E22BFB61A75465A
:108C600040EA0C005B084FEA3202B6EB020E75EBED
:108C7000030E22BFB61A754640EA5C005B084FEA55
:108C80003202B6EB020E75EB030E22BFB61A754622
:108C900040EA9C005B084FEA3202B6EB020E75EB2D
:108CA000030E22BFB61A754640EADC0055EA060EEE
:108CB00018D04FEA051545EA16754FEA06164FEA31
:108CC000C30343EA52734FEAC2025FEA1C1CC0D1DD
:108CD00011F4801F0BD141EA00014FF000004FF06A
:108CE000004CB6E711F4801F04BF01430020B4F12B
:108CF000FD0C88BFBCF5E06F3FF6AFAEB5EB030CE3
:108D000004BFB6EB020C5FEA500C50F1000041EBDF
:108D1000045170BD0EF0004E4EEA113114EB5C04AC
:108D2000C2BFD4EB0C0541EA045170BD41F480117F
:108D30004FF0000E013C90E645EA060E8DE60CEA87
:108D4000135594EA0C0F08BF95EA0C0F3FF43BAFA4
:108D500094EA0C0F0AD150EA01347FF434AF95EA5B
:108D60000C0F7FF425AF104619462CE795EA0C0F3F
:108D700006D152EA03353FF4FDAE1046194622E70C
:108D800050EA410618BF52EA43067FF4C5AE50EAE6
:108D900041047FF40DAF52EA43057FF4EBAE12E7D6
:108DA0004FF0FF3C06E000BF4FF0010C02E000BFB7
:108DB0004FF0010C4DF804CD4FEA410C7FEA6C5C9A
:108DC0004FEA430C18BF7FEA6C5C1BD001B050EA3D
:108DD000410C0CBF52EA430C91EA030F02BF90EA28
:108DE000020F0020704710F1000F91EA030F58BFE7
:108DF000994208BF90422CBFD8176FEAE37040F049
:108E0000010070474FEA410C7FEA6C5C02D150EAE6
:108E1000013C07D14FEA430C7FEA6C5CD6D152EAA1
:108E2000033CD3D05DF8040B704700BF8446104666
:108E300062468C461946634600E000BF01B5FFF765
:108E4000B7FF002848BF10F1000F01BD4DF808ED35
:108E5000FFF7F4FF0CBF012000205DF808FB00BF06
:108E60004DF808EDFFF7EAFF34BF012000205DF860
:108E700008FB00BF4DF808EDFFF7E0FF94BF0120AD
:108E800000205DF808FB00BF4DF808EDFFF7CEFFAE
:108E900094BF012000205DF808FB00BF4DF808EDED
:108EA000FFF7C4FF34BF012000205DF808FB00BFBE
:108EB0004A0011D212F5001211D20DD56FF4787359
:108EC000B3EB62520ED44FEAC12343F0004343EAAE
:108ED000505323FA02F070474FF00000704750EAF9
:108EE000013002D14FF0FF3070474FF00000704763
:108EF00053B94AB9002908BF00281CBF4FF0FF3101
:108F00004FF0FF3000F08CB9ADF1080C6DE904CEE4
:108F100000F024F8DDF804E0DDE9022304B0704736
:108F2000D0B50C4B002206460F46FFF727FDFFF792
:108F3000BFFF0446FFF7A8FC074B0022FFF71EFD0A
:108F400002460B4630463946FFF760FBFFF7B0FF9D
:108F50002146D0BD0000F03D0000F0412DE9F04772
:108F6000089D04468C46002B40F083808A421746B9
:108F700047D9B2FA82F242B1C2F1200024FA00F0DD
:108F80009140974040EA010C94404FEA1748230C67
:108F9000BCFBF8F61FFA87FE08FB16C143EA014343
:108FA00006FB0EF1994209D9FB1806F1FF3080F05B
:108FB0001981994240F21681023E3B445B1AA4B2E9
:108FC000B3FBF8F008FB103344EA034400FB0EFE49
:108FD000A64509D93C1900F1FF3380F00581A6456B
:108FE00040F2028102383C4440EA0640A4EB0E0401
:108FF00000261DB1D4400023C5E900433146BDE839
:10900000F08702B9FFDEB2FA82F2002A50D1CB1B00
:109010004FEA174E1FFA87F80126B3FBFEFC210C1E
:109020000EFB1C3341EA034108FB0CF38B4207D9CA
:1090300079180CF1FF3002D28B4200F2E9808446AD
:10904000C91AA3B2B1FBFEF00EFB101143EA0144B2
:1090500008FB00F8A04507D93C1900F1FF3302D204
:10906000A04500F2D9801846A4EB080440EA0C4061
:10907000BFE78B4209D9002D00F0B1800026C5E979
:10908000000130463146BDE8F087B3FA83F6002E82
:109090004AD18B4202D3824200F2B880841A61EB3B
:1090A000030101208C46002DA8D0C5E9004CA5E79E
:1090B000C2F1200320FA03F6974001FA02F04FEACA
:1090C000174ED9403043030CB1FBFEF61FFA87F868
:1090D0000EFB161143EA014306FB08F1994204FA1C
:1090E00002F409D9FB1806F1FF3C80F08D8099420B
:1090F00040F28A80023E3B445B1A81B2B3FBFEF031
:109100000EFB103341EA034100FB08F38B4207D901
:10911000791800F1FF3C73D28B4271D9023839447F
:10912000CB1A40EA064678E7C6F1200C03FA06F4AB
:1091300022FA0CF31C4320FA0CF701FA06F34FEA6B
:10914000144E21FA0CF11F433B0CB1FBFEF91FFA40
:1091500084F80EFB191143EA014109FB08FA8A451C
:1091600002FA06F200FA06F308D9611809F1FF3095
:1091700048D28A4546D9A9F102092144A1EB0A0146
:10918000BFB2B1FBFEF00EFB101147EA014700FB36
:1091900008F8B84507D9E71900F1FF312ED2B845D4
:1091A0002CD90238274440EA0940A7EB0807A0FB66
:1091B00002894F45C64649461AD317D05DB1B3EB75
:1091C0000E0267EB010707FA0CFCF2404CEA0202C0
:1091D000F740C5E9002700263146BDE8F0872E4656
:1091E00028460BE70646E9E61846FDE64345E5D284
:1091F000B8EB020E69EB04010138DFE70846D2E75D
:1092000060468DE78146B9E7664675E730464AE72E
:10921000ACF1020C394413E702383C4424E700BFA8
:10922000704700BF0A22002100F0F4B80A22002192
:1092300000F0F0B810B5054C13462CB10A460146B3
:109240000220AFF3008010BD2046FCE700000000C4
:109250000A44914200F1FF3300D1704710B511F874
:10926000014B03F8014F9142F9D110BD024403466E
:10927000934200D1704703F8011BF9E738B50D4B55
:109280001D68AB6B04467BB91820FDF745FD0A4A03
:109290000A4BA863C0E90023094B83600B23838139
:1092A00001220023C0E90423AB6B00221C615A6138
:1092B00038BD00BF04E503200E33CDAB34126DE69C
:1092C000ECDE050010F8012B11F8013B012A28BF44
:1092D0009A42F7D0D01A7047034611F8012B03F8D1
:1092E000012B002AF9D17047034613F8012B002AFD
:1092F000FBD1181A0138704710B50139034632B155
:1093000011F8014F03F8014B013A002CF7D11A4430
:109310000021934200D110BD03F8011BF9E70000C2
:109320002DE9F0473A4E86468C4660461CF8014BC4
:10933000A55D15F00805F8D12D2C33D19CF800401F
:109340004FF0010800F1020C002B5CD0102B0CD167
:10935000302C0AD19CF8000000F0DF0058284DD1D5
:109360009CF8014010230CF1020C08F10047013F6A
:109370000026B7FBF3F9304603FB197AA4F1300558
:10938000092D18D82C46A34224DD751C07D0814531
:109390001DD301D1A2451ADB00FB034001261CF8B6
:1093A000014BEBE72B2C08BF9CF80040A84608BFF8
:1093B00000F1020CC8E7A4F14105192D01D8373C92
:1093C000E1E7A4F16105192D04D8573CDBE74FF024
:1093D000FF36E4E7731C06D12223CEF8003038466E
:1093E00042B9BDE8F087B8F1000F00D04042002A32
:1093F000F7D00EB10CF1FF311160F2E73024002BF1
:10940000B3D10823B1E7302CA4D00A23ADE700BFC5
:10941000F6A70D0013460A46014602480068FFF70A
:109420007FBF00BF04E5032021400D005D400D001B
:1094300085400D0089400D000000000025690025D1
:109440006C6900696E006F75740070776D006477E9
:10945000006177004833675878657447723972380D
:109460006E69615F4E6B454D704578343470704461
:10947000455374580076770025322E3766004C6FBE
:109480007720506F696E743A2000486967682050F1
:109490006F696E743A20005072657373207468654A
:1094A00020627574746F6E20746F200A6368616E39
:1094B00067650043686F6F7365206C6F7720736515
:1094C0007474696E6720706F696E740043686F6FA3
:1094D000736520686967682073657474696E6720B6
:1094E000706F696E74006C69676874206C6576656E
:1094F0006C206C6F776572207468616E206C6F777A
:1095000020706F696E74006C69676874206C657692
:10951000656C206265747765656E206C6F7720617D
:109520006E64206869676820706F696E74006C698A
:10953000676874206C6576656C2061626F76652063
:109540006869676820706F696E7400596F75722062
:1095500074656D657261747572652069733A0A632A
:10956000656C736975733A20000A66616872656E8E
:10957000686569743A2000626C6E6B696E6600768D
:10958000657200312E302E3000682D6265617400E6
:10959000343500627566662D696E003130323400F4
:1095A000646576005061727469636C650062756908
:1095B0006C64004A756C2020352032303231203105
:1095C000333A33303A333900000064656661756CB4
:1095D0007420004D5342004C5342003C53504953B9
:1095E000657474696E67732064656661756C743E3A
:1095F000003C53504953657474696E67732025733A
:109600002575202573204D4F444525753E000000EB
:109610000000003E5B4F5B3E3E6B4F6B3E1C3E7C52
:109620003E1C183C7E3C181C577D571C1C5E7F5E00
:109630001C00183C1800FFE7C3E7FF0018241800BF
:10964000FFE7DBE7FF30483A060E26297929264056
:109650007F050507407F05253F5A3CE73C5A7F3E82
:109660001C1C08081C1C3E7F14227F22145F5F0014
:109670005F5F06097F017F006689956A60606060B0
:109680006094A2FFA29408047E040810207E20109B
:1096900008082A1C08081C2A08081E101010100CA4
:1096A0001E0C1E0C30383E3830060E3E0E060000F2
:1096B00000000000005F00000007000700147F1496
:1096C0007F14242A7F2A1223130864623649562005
:1096D000500008070300001C2241000041221C002A
:1096E0002A1C7F1C2A08083E0808008070300008E9
:1096F00008080808000060600020100804023E51BD
:1097000049453E00427F400072494949462141494E
:109710004D331814127F1027454545393C4A4949B5
:109720003141211109073649494936464949291E1F
:10973000000014000000403400000008142241140E
:1097400014141414004122140802015909063E4160
:109750005D594E7C1211127C7F494949363E414188
:1097600041227F4141413E7F494949417F090909E1
:10977000013E414151737F0808087F00417F41004D
:109780002040413F017F081422417F404040407FFC
:10979000021C027F7F0408107F3E4141413E7F0949
:1097A0000909063E4151215E7F091929462649498A
:1097B000493203017F01033F4040403F1F204020CA
:1097C0001F3F4038403F63140814630304780403C8
:1097D0006159494D43007F41414102040810200076
:1097E0004141417F040201020440404040400003E7
:1097F00007080020545478407F28444438384444B3
:109800004428384444287F385454541800087E09AA
:109810000218A4A49C787F0804047800447D4000CA
:109820002040403D007F1028440000417F40007CE4
:10983000047804787C080404783844444438FC18DC
:1098400024241818242418FC7C08040408485454C0
:10985000542404043F44243C4040207C1C204020ED
:109860001C3C4030403C44281028444C9090907C54
:109870004464544C44000836410000007700000066
:109880004136080002010204023C2623263C1EA1A8
:10989000A161123A4040207A385454555921555507
:1098A00079412254547842215554784020545579B6
:1098B000400C1E5272123955555559395454545949
:1098C00039555454580000457C410002457D420002
:1098D00001457C407D1211127DF0282528F07C5432
:1098E0005545002054547C547C0A097F493249492B
:1098F00049323A4444443A324A4848303A41412194
:109900007A3A42402078009DA0A07D3D4242423DEF
:109910003D4040403D3C24FF2424487E4943662B83
:109920002FFC2F2BFF0929F620C0887E0903205425
:109930005479410000447D413048484A3238404023
:10994000227A007A0A0A727D0D19317D2629292F83
:1099500028262929292630484D402038080808089B
:1099600008080808382F10C8ACBA2F102834FA009D
:10997000007B000008142A142222142A140855001F
:10998000550055AA55AA55AAFF55FF55FF000000DE
:10999000FF00101010FF00141414FF001010FF003F
:1099A000FF1010F010F0141414FC001414F700FF52
:1099B0000000FF00FF1414F404FC141417101F100F
:1099C000101F101F1414141F00101010F0000000BE
:1099D000001F101010101F10101010F010000000C9
:1099E000FF101010101010101010FF10000000FFDA
:1099F000140000FF00FF00001F10170000FC04F41B
:109A000014141710171414F404F40000FF00F714D2
:109A1000141414141414F700F71414141714101059
:109A20001F101F141414F4141010F010F000001F75
:109A3000101F0000001F14000000FC140000F010B4
:109A4000F01010FF10FF141414FF141010101F005A
:109A5000000000F010FFFFFFFFFFF0F0F0F0F0FF5C
:109A6000FFFF0000000000FFFF0F0F0F0F0F384433
:109A7000443844FC4A4A4A347E02020606027E0208
:109A80007E0263554941633844443C04407E201EB5
:109A90002006027E020299A5E7A5991C2A492A1CE4
:109AA0004C7201724C304A4D4D303048784830BCD1
:109AB000625A463D3E494949007E0101017E2A2AFB
:109AC0002A2A2A44445F444440514A444040444A7C
:109AD00051400000FF0103E080FF000008086B6BAD
